{
  "contractName": "SmartHome",
  "abi": [
    {
      "anonymous": false,
      "inputs": [
        {
          "indexed": true,
          "internalType": "uint256",
          "name": "_commandId",
          "type": "uint256"
        }
      ],
      "name": "commandCreated",
      "type": "event"
    },
    {
      "anonymous": false,
      "inputs": [
        {
          "indexed": true,
          "internalType": "uint256",
          "name": "_userId",
          "type": "uint256"
        }
      ],
      "name": "userCreated",
      "type": "event"
    },
    {
      "inputs": [],
      "name": "commandCount",
      "outputs": [
        {
          "internalType": "uint256",
          "name": "",
          "type": "uint256"
        }
      ],
      "stateMutability": "view",
      "type": "function",
      "constant": true
    },
    {
      "inputs": [
        {
          "internalType": "uint256",
          "name": "",
          "type": "uint256"
        }
      ],
      "name": "commandList",
      "outputs": [
        {
          "internalType": "string",
          "name": "user_id",
          "type": "string"
        },
        {
          "internalType": "string",
          "name": "sensor",
          "type": "string"
        },
        {
          "internalType": "string",
          "name": "command_value",
          "type": "string"
        },
        {
          "internalType": "string",
          "name": "command_date",
          "type": "string"
        }
      ],
      "stateMutability": "view",
      "type": "function",
      "constant": true
    },
    {
      "inputs": [],
      "name": "userCount",
      "outputs": [
        {
          "internalType": "uint256",
          "name": "",
          "type": "uint256"
        }
      ],
      "stateMutability": "view",
      "type": "function",
      "constant": true
    },
    {
      "inputs": [
        {
          "internalType": "uint256",
          "name": "",
          "type": "uint256"
        }
      ],
      "name": "userList",
      "outputs": [
        {
          "internalType": "string",
          "name": "username",
          "type": "string"
        },
        {
          "internalType": "string",
          "name": "password",
          "type": "string"
        },
        {
          "internalType": "string",
          "name": "phone",
          "type": "string"
        },
        {
          "internalType": "string",
          "name": "email",
          "type": "string"
        },
        {
          "internalType": "string",
          "name": "home_address",
          "type": "string"
        }
      ],
      "stateMutability": "view",
      "type": "function",
      "constant": true
    },
    {
      "inputs": [
        {
          "internalType": "string",
          "name": "uid",
          "type": "string"
        },
        {
          "internalType": "string",
          "name": "sen",
          "type": "string"
        },
        {
          "internalType": "string",
          "name": "cv",
          "type": "string"
        },
        {
          "internalType": "string",
          "name": "cd",
          "type": "string"
        }
      ],
      "name": "createCommand",
      "outputs": [],
      "stateMutability": "nonpayable",
      "type": "function"
    },
    {
      "inputs": [],
      "name": "getCommandCount",
      "outputs": [
        {
          "internalType": "uint256",
          "name": "",
          "type": "uint256"
        }
      ],
      "stateMutability": "view",
      "type": "function",
      "constant": true
    },
    {
      "inputs": [
        {
          "internalType": "uint256",
          "name": "i",
          "type": "uint256"
        }
      ],
      "name": "getUserid",
      "outputs": [
        {
          "internalType": "string",
          "name": "",
          "type": "string"
        }
      ],
      "stateMutability": "view",
      "type": "function",
      "constant": true
    },
    {
      "inputs": [
        {
          "internalType": "uint256",
          "name": "i",
          "type": "uint256"
        }
      ],
      "name": "getSensor",
      "outputs": [
        {
          "internalType": "string",
          "name": "",
          "type": "string"
        }
      ],
      "stateMutability": "view",
      "type": "function",
      "constant": true
    },
    {
      "inputs": [
        {
          "internalType": "uint256",
          "name": "i",
          "type": "uint256"
        }
      ],
      "name": "getCommandValue",
      "outputs": [
        {
          "internalType": "string",
          "name": "",
          "type": "string"
        }
      ],
      "stateMutability": "view",
      "type": "function",
      "constant": true
    },
    {
      "inputs": [
        {
          "internalType": "uint256",
          "name": "i",
          "type": "uint256"
        }
      ],
      "name": "getCommandDate",
      "outputs": [
        {
          "internalType": "string",
          "name": "",
          "type": "string"
        }
      ],
      "stateMutability": "view",
      "type": "function",
      "constant": true
    },
    {
      "inputs": [
        {
          "internalType": "string",
          "name": "_username",
          "type": "string"
        },
        {
          "internalType": "string",
          "name": "_password",
          "type": "string"
        },
        {
          "internalType": "string",
          "name": "_phone",
          "type": "string"
        },
        {
          "internalType": "string",
          "name": "email",
          "type": "string"
        },
        {
          "internalType": "string",
          "name": "ha",
          "type": "string"
        }
      ],
      "name": "createUser",
      "outputs": [],
      "stateMutability": "nonpayable",
      "type": "function"
    },
    {
      "inputs": [],
      "name": "getUserCount",
      "outputs": [
        {
          "internalType": "uint256",
          "name": "",
          "type": "uint256"
        }
      ],
      "stateMutability": "view",
      "type": "function",
      "constant": true
    },
    {
      "inputs": [
        {
          "internalType": "uint256",
          "name": "i",
          "type": "uint256"
        }
      ],
      "name": "getUsername",
      "outputs": [
        {
          "internalType": "string",
          "name": "",
          "type": "string"
        }
      ],
      "stateMutability": "view",
      "type": "function",
      "constant": true
    },
    {
      "inputs": [
        {
          "internalType": "uint256",
          "name": "i",
          "type": "uint256"
        }
      ],
      "name": "getPassword",
      "outputs": [
        {
          "internalType": "string",
          "name": "",
          "type": "string"
        }
      ],
      "stateMutability": "view",
      "type": "function",
      "constant": true
    },
    {
      "inputs": [
        {
          "internalType": "uint256",
          "name": "i",
          "type": "uint256"
        }
      ],
      "name": "getEmail",
      "outputs": [
        {
          "internalType": "string",
          "name": "",
          "type": "string"
        }
      ],
      "stateMutability": "view",
      "type": "function",
      "constant": true
    },
    {
      "inputs": [
        {
          "internalType": "uint256",
          "name": "i",
          "type": "uint256"
        }
      ],
      "name": "getAddress",
      "outputs": [
        {
          "internalType": "string",
          "name": "",
          "type": "string"
        }
      ],
      "stateMutability": "view",
      "type": "function",
      "constant": true
    },
    {
      "inputs": [
        {
          "internalType": "uint256",
          "name": "i",
          "type": "uint256"
        }
      ],
      "name": "getPhone",
      "outputs": [
        {
          "internalType": "string",
          "name": "",
          "type": "string"
        }
      ],
      "stateMutability": "view",
      "type": "function",
      "constant": true
    }
  ],
  "bytecode": "0x608060405260008055600060025534801561001957600080fd5b50612b4d806100296000396000f3fe608060405234801561001057600080fd5b506004361061010b5760003560e01c806379bac224116100a2578063b5cb15f711610071578063b5cb15f7146102f6578063b93f9b0a14610314578063cf85f97e14610344578063f18d18cc14610377578063f38c6bb6146103a75761010b565b806379bac22414610256578063972fe8bc146102745780639a2d834f146102a45780639f4216e8146102c25761010b565b806365c06f70116100de57806365c06f70146101be578063668a343c146101da57806372df6184146101f657806378804426146102265761010b565b8063013e23d71461011057806307973ccf146101405780632b5bcb961461015e5780632e7d44b51461018e575b600080fd5b61012a60048036038101906101259190612542565b6103d7565b6040516101379190612608565b60405180910390f35b610148610650565b6040516101559190612639565b60405180910390f35b61017860048036038101906101739190612542565b610656565b6040516101859190612608565b60405180910390f35b6101a860048036038101906101a39190612542565b6108cf565b6040516101b59190612608565b60405180910390f35b6101d860048036038101906101d39190612789565b610bda565b005b6101f460048036038101906101ef9190612890565b610cf8565b005b610210600480360381019061020b9190612542565b610df0565b60405161021d9190612608565b60405180910390f35b610240600480360381019061023b9190612542565b611069565b60405161024d9190612608565b60405180910390f35b61025e6112e2565b60405161026b9190612639565b60405180910390f35b61028e60048036038101906102899190612542565b6112e8565b60405161029b9190612608565b60405180910390f35b6102ac6115f3565b6040516102b99190612639565b60405180910390f35b6102dc60048036038101906102d79190612542565b6115fc565b6040516102ed959493929190612967565b60405180910390f35b6102fe6118da565b60405161030b9190612639565b60405180910390f35b61032e60048036038101906103299190612542565b6118e4565b60405161033b9190612608565b60405180910390f35b61035e60048036038101906103599190612542565b611bef565b60405161036e94939291906129dd565b60405180910390f35b610391600480360381019061038c9190612542565b611e3f565b60405161039e9190612608565b60405180910390f35b6103c160048036038101906103bc9190612542565b61214a565b6040516103ce9190612608565b60405180910390f35b606060006001600084815260200190815260200160002060405180608001604052908160008201805461040990612a6d565b80601f016020809104026020016040519081016040528092919081815260200182805461043590612a6d565b80156104825780601f1061045757610100808354040283529160200191610482565b820191906000526020600020905b81548152906001019060200180831161046557829003601f168201915b5050505050815260200160018201805461049b90612a6d565b80601f01602080910402602001604051908101604052809291908181526020018280546104c790612a6d565b80156105145780601f106104e957610100808354040283529160200191610514565b820191906000526020600020905b8154815290600101906020018083116104f757829003601f168201915b5050505050815260200160028201805461052d90612a6d565b80601f016020809104026020016040519081016040528092919081815260200182805461055990612a6d565b80156105a65780601f1061057b576101008083540402835291602001916105a6565b820191906000526020600020905b81548152906001019060200180831161058957829003601f168201915b505050505081526020016003820180546105bf90612a6d565b80601f01602080910402602001604051908101604052809291908181526020018280546105eb90612a6d565b80156106385780601f1061060d57610100808354040283529160200191610638565b820191906000526020600020905b81548152906001019060200180831161061b57829003601f168201915b50505050508152505090508060600151915050919050565b60025481565b606060006001600084815260200190815260200160002060405180608001604052908160008201805461068890612a6d565b80601f01602080910402602001604051908101604052809291908181526020018280546106b490612a6d565b80156107015780601f106106d657610100808354040283529160200191610701565b820191906000526020600020905b8154815290600101906020018083116106e457829003601f168201915b5050505050815260200160018201805461071a90612a6d565b80601f016020809104026020016040519081016040528092919081815260200182805461074690612a6d565b80156107935780601f1061076857610100808354040283529160200191610793565b820191906000526020600020905b81548152906001019060200180831161077657829003601f168201915b505050505081526020016002820180546107ac90612a6d565b80601f01602080910402602001604051908101604052809291908181526020018280546107d890612a6d565b80156108255780601f106107fa57610100808354040283529160200191610825565b820191906000526020600020905b81548152906001019060200180831161080857829003601f168201915b5050505050815260200160038201805461083e90612a6d565b80601f016020809104026020016040519081016040528092919081815260200182805461086a90612a6d565b80156108b75780601f1061088c576101008083540402835291602001916108b7565b820191906000526020600020905b81548152906001019060200180831161089a57829003601f168201915b50505050508152505090508060000151915050919050565b60606000600360008481526020019081526020016000206040518060a001604052908160008201805461090190612a6d565b80601f016020809104026020016040519081016040528092919081815260200182805461092d90612a6d565b801561097a5780601f1061094f5761010080835404028352916020019161097a565b820191906000526020600020905b81548152906001019060200180831161095d57829003601f168201915b5050505050815260200160018201805461099390612a6d565b80601f01602080910402602001604051908101604052809291908181526020018280546109bf90612a6d565b8015610a0c5780601f106109e157610100808354040283529160200191610a0c565b820191906000526020600020905b8154815290600101906020018083116109ef57829003601f168201915b50505050508152602001600282018054610a2590612a6d565b80601f0160208091040260200160405190810160405280929190818152602001828054610a5190612a6d565b8015610a9e5780601f10610a7357610100808354040283529160200191610a9e565b820191906000526020600020905b815481529060010190602001808311610a8157829003601f168201915b50505050508152602001600382018054610ab790612a6d565b80601f0160208091040260200160405190810160405280929190818152602001828054610ae390612a6d565b8015610b305780601f10610b0557610100808354040283529160200191610b30565b820191906000526020600020905b815481529060010190602001808311610b1357829003601f168201915b50505050508152602001600482018054610b4990612a6d565b80601f0160208091040260200160405190810160405280929190818152602001828054610b7590612a6d565b8015610bc25780601f10610b9757610100808354040283529160200191610bc2565b820191906000526020600020905b815481529060010190602001808311610ba557829003601f168201915b50505050508152505090508060400151915050919050565b6040518060a00160405280868152602001858152602001848152602001838152602001828152506003600060025481526020019081526020016000206000820151816000019080519060200190610c32929190612455565b506020820151816001019080519060200190610c4f929190612455565b506040820151816002019080519060200190610c6c929190612455565b506060820151816003019080519060200190610c89929190612455565b506080820151816004019080519060200190610ca6929190612455565b509050506002547f1ed675bb725b3a8b0434b9ee956fe05e4c0e79f9dc67c3f1a717a5bb1fd88fd360405160405180910390a260026000815480929190610cec90612ace565b91905055505050505050565b60405180608001604052808581526020018481526020018381526020018281525060016000805481526020019081526020016000206000820151816000019080519060200190610d49929190612455565b506020820151816001019080519060200190610d66929190612455565b506040820151816002019080519060200190610d83929190612455565b506060820151816003019080519060200190610da0929190612455565b509050506000547f09d3a27697a2418f780ee347a3c1c0cb8e36ce764545a7aa44daa32950ac84a060405160405180910390a2600080815480929190610de590612ace565b919050555050505050565b6060600060016000848152602001908152602001600020604051806080016040529081600082018054610e2290612a6d565b80601f0160208091040260200160405190810160405280929190818152602001828054610e4e90612a6d565b8015610e9b5780601f10610e7057610100808354040283529160200191610e9b565b820191906000526020600020905b815481529060010190602001808311610e7e57829003601f168201915b50505050508152602001600182018054610eb490612a6d565b80601f0160208091040260200160405190810160405280929190818152602001828054610ee090612a6d565b8015610f2d5780601f10610f0257610100808354040283529160200191610f2d565b820191906000526020600020905b815481529060010190602001808311610f1057829003601f168201915b50505050508152602001600282018054610f4690612a6d565b80601f0160208091040260200160405190810160405280929190818152602001828054610f7290612a6d565b8015610fbf5780601f10610f9457610100808354040283529160200191610fbf565b820191906000526020600020905b815481529060010190602001808311610fa257829003601f168201915b50505050508152602001600382018054610fd890612a6d565b80601f016020809104026020016040519081016040528092919081815260200182805461100490612a6d565b80156110515780601f1061102657610100808354040283529160200191611051565b820191906000526020600020905b81548152906001019060200180831161103457829003601f168201915b50505050508152505090508060400151915050919050565b606060006001600084815260200190815260200160002060405180608001604052908160008201805461109b90612a6d565b80601f01602080910402602001604051908101604052809291908181526020018280546110c790612a6d565b80156111145780601f106110e957610100808354040283529160200191611114565b820191906000526020600020905b8154815290600101906020018083116110f757829003601f168201915b5050505050815260200160018201805461112d90612a6d565b80601f016020809104026020016040519081016040528092919081815260200182805461115990612a6d565b80156111a65780601f1061117b576101008083540402835291602001916111a6565b820191906000526020600020905b81548152906001019060200180831161118957829003601f168201915b505050505081526020016002820180546111bf90612a6d565b80601f01602080910402602001604051908101604052809291908181526020018280546111eb90612a6d565b80156112385780601f1061120d57610100808354040283529160200191611238565b820191906000526020600020905b81548152906001019060200180831161121b57829003601f168201915b5050505050815260200160038201805461125190612a6d565b80601f016020809104026020016040519081016040528092919081815260200182805461127d90612a6d565b80156112ca5780601f1061129f576101008083540402835291602001916112ca565b820191906000526020600020905b8154815290600101906020018083116112ad57829003601f168201915b50505050508152505090508060200151915050919050565b60005481565b60606000600360008481526020019081526020016000206040518060a001604052908160008201805461131a90612a6d565b80601f016020809104026020016040519081016040528092919081815260200182805461134690612a6d565b80156113935780601f1061136857610100808354040283529160200191611393565b820191906000526020600020905b81548152906001019060200180831161137657829003601f168201915b505050505081526020016001820180546113ac90612a6d565b80601f01602080910402602001604051908101604052809291908181526020018280546113d890612a6d565b80156114255780601f106113fa57610100808354040283529160200191611425565b820191906000526020600020905b81548152906001019060200180831161140857829003601f168201915b5050505050815260200160028201805461143e90612a6d565b80601f016020809104026020016040519081016040528092919081815260200182805461146a90612a6d565b80156114b75780601f1061148c576101008083540402835291602001916114b7565b820191906000526020600020905b81548152906001019060200180831161149a57829003601f168201915b505050505081526020016003820180546114d090612a6d565b80601f01602080910402602001604051908101604052809291908181526020018280546114fc90612a6d565b80156115495780601f1061151e57610100808354040283529160200191611549565b820191906000526020600020905b81548152906001019060200180831161152c57829003601f168201915b5050505050815260200160048201805461156290612a6d565b80601f016020809104026020016040519081016040528092919081815260200182805461158e90612a6d565b80156115db5780601f106115b0576101008083540402835291602001916115db565b820191906000526020600020905b8154815290600101906020018083116115be57829003601f168201915b50505050508152505090508060600151915050919050565b60008054905090565b600360205280600052604060002060009150905080600001805461161f90612a6d565b80601f016020809104026020016040519081016040528092919081815260200182805461164b90612a6d565b80156116985780601f1061166d57610100808354040283529160200191611698565b820191906000526020600020905b81548152906001019060200180831161167b57829003601f168201915b5050505050908060010180546116ad90612a6d565b80601f01602080910402602001604051908101604052809291908181526020018280546116d990612a6d565b80156117265780601f106116fb57610100808354040283529160200191611726565b820191906000526020600020905b81548152906001019060200180831161170957829003601f168201915b50505050509080600201805461173b90612a6d565b80601f016020809104026020016040519081016040528092919081815260200182805461176790612a6d565b80156117b45780601f10611789576101008083540402835291602001916117b4565b820191906000526020600020905b81548152906001019060200180831161179757829003601f168201915b5050505050908060030180546117c990612a6d565b80601f01602080910402602001604051908101604052809291908181526020018280546117f590612a6d565b80156118425780601f1061181757610100808354040283529160200191611842565b820191906000526020600020905b81548152906001019060200180831161182557829003601f168201915b50505050509080600401805461185790612a6d565b80601f016020809104026020016040519081016040528092919081815260200182805461188390612a6d565b80156118d05780601f106118a5576101008083540402835291602001916118d0565b820191906000526020600020905b8154815290600101906020018083116118b357829003601f168201915b5050505050905085565b6000600254905090565b60606000600360008481526020019081526020016000206040518060a001604052908160008201805461191690612a6d565b80601f016020809104026020016040519081016040528092919081815260200182805461194290612a6d565b801561198f5780601f106119645761010080835404028352916020019161198f565b820191906000526020600020905b81548152906001019060200180831161197257829003601f168201915b505050505081526020016001820180546119a890612a6d565b80601f01602080910402602001604051908101604052809291908181526020018280546119d490612a6d565b8015611a215780601f106119f657610100808354040283529160200191611a21565b820191906000526020600020905b815481529060010190602001808311611a0457829003601f168201915b50505050508152602001600282018054611a3a90612a6d565b80601f0160208091040260200160405190810160405280929190818152602001828054611a6690612a6d565b8015611ab35780601f10611a8857610100808354040283529160200191611ab3565b820191906000526020600020905b815481529060010190602001808311611a9657829003601f168201915b50505050508152602001600382018054611acc90612a6d565b80601f0160208091040260200160405190810160405280929190818152602001828054611af890612a6d565b8015611b455780601f10611b1a57610100808354040283529160200191611b45565b820191906000526020600020905b815481529060010190602001808311611b2857829003601f168201915b50505050508152602001600482018054611b5e90612a6d565b80601f0160208091040260200160405190810160405280929190818152602001828054611b8a90612a6d565b8015611bd75780601f10611bac57610100808354040283529160200191611bd7565b820191906000526020600020905b815481529060010190602001808311611bba57829003601f168201915b50505050508152505090508060800151915050919050565b6001602052806000526040600020600091509050806000018054611c1290612a6d565b80601f0160208091040260200160405190810160405280929190818152602001828054611c3e90612a6d565b8015611c8b5780601f10611c6057610100808354040283529160200191611c8b565b820191906000526020600020905b815481529060010190602001808311611c6e57829003601f168201915b505050505090806001018054611ca090612a6d565b80601f0160208091040260200160405190810160405280929190818152602001828054611ccc90612a6d565b8015611d195780601f10611cee57610100808354040283529160200191611d19565b820191906000526020600020905b815481529060010190602001808311611cfc57829003601f168201915b505050505090806002018054611d2e90612a6d565b80601f0160208091040260200160405190810160405280929190818152602001828054611d5a90612a6d565b8015611da75780601f10611d7c57610100808354040283529160200191611da7565b820191906000526020600020905b815481529060010190602001808311611d8a57829003601f168201915b505050505090806003018054611dbc90612a6d565b80601f0160208091040260200160405190810160405280929190818152602001828054611de890612a6d565b8015611e355780601f10611e0a57610100808354040283529160200191611e35565b820191906000526020600020905b815481529060010190602001808311611e1857829003601f168201915b5050505050905084565b60606000600360008481526020019081526020016000206040518060a0016040529081600082018054611e7190612a6d565b80601f0160208091040260200160405190810160405280929190818152602001828054611e9d90612a6d565b8015611eea5780601f10611ebf57610100808354040283529160200191611eea565b820191906000526020600020905b815481529060010190602001808311611ecd57829003601f168201915b50505050508152602001600182018054611f0390612a6d565b80601f0160208091040260200160405190810160405280929190818152602001828054611f2f90612a6d565b8015611f7c5780601f10611f5157610100808354040283529160200191611f7c565b820191906000526020600020905b815481529060010190602001808311611f5f57829003601f168201915b50505050508152602001600282018054611f9590612a6d565b80601f0160208091040260200160405190810160405280929190818152602001828054611fc190612a6d565b801561200e5780601f10611fe35761010080835404028352916020019161200e565b820191906000526020600020905b815481529060010190602001808311611ff157829003601f168201915b5050505050815260200160038201805461202790612a6d565b80601f016020809104026020016040519081016040528092919081815260200182805461205390612a6d565b80156120a05780601f10612075576101008083540402835291602001916120a0565b820191906000526020600020905b81548152906001019060200180831161208357829003601f168201915b505050505081526020016004820180546120b990612a6d565b80601f01602080910402602001604051908101604052809291908181526020018280546120e590612a6d565b80156121325780601f1061210757610100808354040283529160200191612132565b820191906000526020600020905b81548152906001019060200180831161211557829003601f168201915b50505050508152505090508060000151915050919050565b60606000600360008481526020019081526020016000206040518060a001604052908160008201805461217c90612a6d565b80601f01602080910402602001604051908101604052809291908181526020018280546121a890612a6d565b80156121f55780601f106121ca576101008083540402835291602001916121f5565b820191906000526020600020905b8154815290600101906020018083116121d857829003601f168201915b5050505050815260200160018201805461220e90612a6d565b80601f016020809104026020016040519081016040528092919081815260200182805461223a90612a6d565b80156122875780601f1061225c57610100808354040283529160200191612287565b820191906000526020600020905b81548152906001019060200180831161226a57829003601f168201915b505050505081526020016002820180546122a090612a6d565b80601f01602080910402602001604051908101604052809291908181526020018280546122cc90612a6d565b80156123195780601f106122ee57610100808354040283529160200191612319565b820191906000526020600020905b8154815290600101906020018083116122fc57829003601f168201915b5050505050815260200160038201805461233290612a6d565b80601f016020809104026020016040519081016040528092919081815260200182805461235e90612a6d565b80156123ab5780601f10612380576101008083540402835291602001916123ab565b820191906000526020600020905b81548152906001019060200180831161238e57829003601f168201915b505050505081526020016004820180546123c490612a6d565b80601f01602080910402602001604051908101604052809291908181526020018280546123f090612a6d565b801561243d5780601f106124125761010080835404028352916020019161243d565b820191906000526020600020905b81548152906001019060200180831161242057829003601f168201915b50505050508152505090508060200151915050919050565b82805461246190612a6d565b90600052602060002090601f01602090048101928261248357600085556124ca565b82601f1061249c57805160ff19168380011785556124ca565b828001600101855582156124ca579182015b828111156124c95782518255916020019190600101906124ae565b5b5090506124d791906124db565b5090565b5b808211156124f45760008160009055506001016124dc565b5090565b6000604051905090565b600080fd5b600080fd5b6000819050919050565b61251f8161250c565b811461252a57600080fd5b50565b60008135905061253c81612516565b92915050565b60006020828403121561255857612557612502565b5b60006125668482850161252d565b91505092915050565b600081519050919050565b600082825260208201905092915050565b60005b838110156125a957808201518184015260208101905061258e565b838111156125b8576000848401525b50505050565b6000601f19601f8301169050919050565b60006125da8261256f565b6125e4818561257a565b93506125f481856020860161258b565b6125fd816125be565b840191505092915050565b6000602082019050818103600083015261262281846125cf565b905092915050565b6126338161250c565b82525050565b600060208201905061264e600083018461262a565b92915050565b600080fd5b600080fd5b7f4e487b7100000000000000000000000000000000000000000000000000000000600052604160045260246000fd5b612696826125be565b810181811067ffffffffffffffff821117156126b5576126b461265e565b5b80604052505050565b60006126c86124f8565b90506126d4828261268d565b919050565b600067ffffffffffffffff8211156126f4576126f361265e565b5b6126fd826125be565b9050602081019050919050565b82818337600083830152505050565b600061272c612727846126d9565b6126be565b90508281526020810184848401111561274857612747612659565b5b61275384828561270a565b509392505050565b600082601f8301126127705761276f612654565b5b8135612780848260208601612719565b91505092915050565b600080600080600060a086880312156127a5576127a4612502565b5b600086013567ffffffffffffffff8111156127c3576127c2612507565b5b6127cf8882890161275b565b955050602086013567ffffffffffffffff8111156127f0576127ef612507565b5b6127fc8882890161275b565b945050604086013567ffffffffffffffff81111561281d5761281c612507565b5b6128298882890161275b565b935050606086013567ffffffffffffffff81111561284a57612849612507565b5b6128568882890161275b565b925050608086013567ffffffffffffffff81111561287757612876612507565b5b6128838882890161275b565b9150509295509295909350565b600080600080608085870312156128aa576128a9612502565b5b600085013567ffffffffffffffff8111156128c8576128c7612507565b5b6128d48782880161275b565b945050602085013567ffffffffffffffff8111156128f5576128f4612507565b5b6129018782880161275b565b935050604085013567ffffffffffffffff81111561292257612921612507565b5b61292e8782880161275b565b925050606085013567ffffffffffffffff81111561294f5761294e612507565b5b61295b8782880161275b565b91505092959194509250565b600060a082019050818103600083015261298181886125cf565b9050818103602083015261299581876125cf565b905081810360408301526129a981866125cf565b905081810360608301526129bd81856125cf565b905081810360808301526129d181846125cf565b90509695505050505050565b600060808201905081810360008301526129f781876125cf565b90508181036020830152612a0b81866125cf565b90508181036040830152612a1f81856125cf565b90508181036060830152612a3381846125cf565b905095945050505050565b7f4e487b7100000000000000000000000000000000000000000000000000000000600052602260045260246000fd5b60006002820490506001821680612a8557607f821691505b60208210811415612a9957612a98612a3e565b5b50919050565b7f4e487b7100000000000000000000000000000000000000000000000000000000600052601160045260246000fd5b6000612ad98261250c565b91507fffffffffffffffffffffffffffffffffffffffffffffffffffffffffffffffff821415612b0c57612b0b612a9f565b5b60018201905091905056fea2646970667358221220604e7e3b02e528f5eefac0f57802f17d4a56a1590ca795fba5c7e699ed6f9f9464736f6c634300080b0033",
  "immutableReferences": {},
  "source": "pragma solidity >= 0.8.11 <= 0.8.11;\r\npragma experimental ABIEncoderV2;\r\n//SmartHome solidity code\r\ncontract SmartHome {\r\n\r\n    uint public commandCount = 0; \r\n    mapping(uint => command) public commandList; \r\n     struct command\r\n     {\r\n       string user_id;\r\n       string sensor;\r\n       string command_value;\r\n       string command_date;       \r\n     }\r\n \r\n   // events \r\n   event commandCreated(uint indexed _commandId);\r\n\r\n  \r\n   //function  to save command details\r\n   function createCommand(string memory uid, string memory sen,string memory cv, string memory cd) public {\r\n      commandList[commandCount] = command(uid, sen, cv, cd);\r\n      emit commandCreated(commandCount);\r\n      commandCount++;\r\n    }\r\n\r\n     //get command count\r\n    function getCommandCount()  public view returns (uint) {\r\n          return commandCount;\r\n    }    \r\n\r\n    function getUserid(uint i) public view returns (string memory) {\r\n        command memory s = commandList[i];\r\n\treturn s.user_id;\r\n    }\r\n\r\n    function getSensor(uint i) public view returns (string memory) {\r\n        command memory s = commandList[i];\r\n\treturn s.sensor;\r\n    }\r\n\r\n    function getCommandValue(uint i) public view returns (string memory) {\r\n        command memory s =commandList[i];\r\n\treturn s.command_value;\r\n    }\r\n\r\n    function getCommandDate(uint i) public view returns (string memory) {\r\n        command memory s =commandList[i];\r\n\treturn s.command_date;\r\n    }\r\n\r\n    uint public userCount = 0; \r\n    mapping(uint => user) public userList; \r\n     struct user\r\n     {\r\n       string username;\r\n       string password;\r\n       string phone;      \r\n       string email;\r\n       string home_address;\r\n     }\r\n \r\n   // events\r\n \r\n   event userCreated(uint indexed _userId);\r\n \r\n  function createUser(string memory _username, string memory _password, string memory _phone, string memory email, string memory ha) public {\r\n      userList[userCount] = user(_username, _password, _phone, email, ha);\r\n      emit userCreated(userCount);\r\n      userCount++;\r\n    }\r\n\r\n    //get user count\r\n    function getUserCount()  public view returns (uint) {\r\n          return  userCount;\r\n    }\r\n\r\n    function getUsername(uint i) public view returns (string memory) {\r\n        user memory usr = userList[i];\r\n\treturn usr.username;\r\n    }\r\n\r\n    function getPassword(uint i) public view returns (string memory) {\r\n        user memory usr = userList[i];\r\n\treturn usr.password;\r\n    }\r\n\r\n    function getEmail(uint i) public view returns (string memory) {\r\n        user memory usr = userList[i];\r\n\treturn usr.email;\r\n    }   \r\n\r\n    function getAddress(uint i) public view returns (string memory) {\r\n        user memory usr = userList[i];\r\n\treturn usr.home_address;\r\n    }   \r\n\r\n    \r\n    function getPhone(uint i) public view returns (string memory) {\r\n        user memory usr = userList[i];\r\n\treturn usr.phone;\r\n    }   \r\n            \r\n}",
  "sourcePath": "C:\\Users\\CH.RAJA SRICHARAN\\Downloads\\Blockchain\\Blockchain\\hello-eth\\contracts\\SmartHome.sol",
  "compiler": {
    "name": "solc",
    "version": "0.8.11+commit.d7f03943.Emscripten.clang"
  },
  "schemaVersion": "3.4.4",
  "updatedAt": "2026-03-04T05:01:16.403Z",
  "networkType": "ethereum",
  "devdoc": {
    "kind": "dev",
    "methods": {},
    "version": 1
  },
  "userdoc": {
    "kind": "user",
    "methods": {},
    "version": 1
  }
}